{
  "_format": "hh-sol-artifact-1",
  "contractName": "MintNFT",
  "sourceName": "contracts/NFT.sol",
  "abi": [
    {
      "inputs": [],
      "stateMutability": "nonpayable",
      "type": "constructor"
    },
    {
      "anonymous": false,
      "inputs": [
        {
          "indexed": true,
          "internalType": "address",
          "name": "account",
          "type": "address"
        },
        {
          "indexed": true,
          "internalType": "address",
          "name": "operator",
          "type": "address"
        },
        {
          "indexed": false,
          "internalType": "bool",
          "name": "approved",
          "type": "bool"
        }
      ],
      "name": "ApprovalForAll",
      "type": "event"
    },
    {
      "anonymous": false,
      "inputs": [
        {
          "indexed": true,
          "internalType": "address",
          "name": "operator",
          "type": "address"
        },
        {
          "indexed": true,
          "internalType": "address",
          "name": "from",
          "type": "address"
        },
        {
          "indexed": true,
          "internalType": "address",
          "name": "to",
          "type": "address"
        },
        {
          "indexed": false,
          "internalType": "uint256[]",
          "name": "ids",
          "type": "uint256[]"
        },
        {
          "indexed": false,
          "internalType": "uint256[]",
          "name": "values",
          "type": "uint256[]"
        }
      ],
      "name": "TransferBatch",
      "type": "event"
    },
    {
      "anonymous": false,
      "inputs": [
        {
          "indexed": true,
          "internalType": "address",
          "name": "operator",
          "type": "address"
        },
        {
          "indexed": true,
          "internalType": "address",
          "name": "from",
          "type": "address"
        },
        {
          "indexed": true,
          "internalType": "address",
          "name": "to",
          "type": "address"
        },
        {
          "indexed": false,
          "internalType": "uint256",
          "name": "id",
          "type": "uint256"
        },
        {
          "indexed": false,
          "internalType": "uint256",
          "name": "value",
          "type": "uint256"
        }
      ],
      "name": "TransferSingle",
      "type": "event"
    },
    {
      "anonymous": false,
      "inputs": [
        {
          "indexed": false,
          "internalType": "string",
          "name": "value",
          "type": "string"
        },
        {
          "indexed": true,
          "internalType": "uint256",
          "name": "id",
          "type": "uint256"
        }
      ],
      "name": "URI",
      "type": "event"
    },
    {
      "inputs": [
        {
          "internalType": "address",
          "name": "account",
          "type": "address"
        },
        {
          "internalType": "uint256",
          "name": "id",
          "type": "uint256"
        }
      ],
      "name": "balanceOf",
      "outputs": [
        {
          "internalType": "uint256",
          "name": "",
          "type": "uint256"
        }
      ],
      "stateMutability": "view",
      "type": "function"
    },
    {
      "inputs": [
        {
          "internalType": "address[]",
          "name": "accounts",
          "type": "address[]"
        },
        {
          "internalType": "uint256[]",
          "name": "ids",
          "type": "uint256[]"
        }
      ],
      "name": "balanceOfBatch",
      "outputs": [
        {
          "internalType": "uint256[]",
          "name": "",
          "type": "uint256[]"
        }
      ],
      "stateMutability": "view",
      "type": "function"
    },
    {
      "inputs": [
        {
          "internalType": "address",
          "name": "to",
          "type": "address"
        },
        {
          "internalType": "uint256[]",
          "name": "ids",
          "type": "uint256[]"
        },
        {
          "internalType": "uint256[]",
          "name": "amounts",
          "type": "uint256[]"
        }
      ],
      "name": "batchTransfer",
      "outputs": [],
      "stateMutability": "nonpayable",
      "type": "function"
    },
    {
      "inputs": [
        {
          "internalType": "uint256",
          "name": "id",
          "type": "uint256"
        },
        {
          "internalType": "uint256",
          "name": "amount",
          "type": "uint256"
        }
      ],
      "name": "burn",
      "outputs": [],
      "stateMutability": "nonpayable",
      "type": "function"
    },
    {
      "inputs": [
        {
          "internalType": "uint256[]",
          "name": "ids",
          "type": "uint256[]"
        },
        {
          "internalType": "uint256[]",
          "name": "amounts",
          "type": "uint256[]"
        }
      ],
      "name": "burnBatch",
      "outputs": [],
      "stateMutability": "nonpayable",
      "type": "function"
    },
    {
      "inputs": [
        {
          "internalType": "address",
          "name": "account",
          "type": "address"
        },
        {
          "internalType": "address",
          "name": "operator",
          "type": "address"
        }
      ],
      "name": "isApprovedForAll",
      "outputs": [
        {
          "internalType": "bool",
          "name": "",
          "type": "bool"
        }
      ],
      "stateMutability": "view",
      "type": "function"
    },
    {
      "inputs": [
        {
          "internalType": "address",
          "name": "to",
          "type": "address"
        },
        {
          "internalType": "uint256",
          "name": "amount",
          "type": "uint256"
        },
        {
          "internalType": "string",
          "name": "cid",
          "type": "string"
        }
      ],
      "name": "mint",
      "outputs": [],
      "stateMutability": "nonpayable",
      "type": "function"
    },
    {
      "inputs": [
        {
          "internalType": "address",
          "name": "to",
          "type": "address"
        },
        {
          "internalType": "uint256[]",
          "name": "amounts",
          "type": "uint256[]"
        },
        {
          "internalType": "string[]",
          "name": "cids",
          "type": "string[]"
        }
      ],
      "name": "mintBatch",
      "outputs": [],
      "stateMutability": "nonpayable",
      "type": "function"
    },
    {
      "inputs": [],
      "name": "owner",
      "outputs": [
        {
          "internalType": "address",
          "name": "",
          "type": "address"
        }
      ],
      "stateMutability": "view",
      "type": "function"
    },
    {
      "inputs": [
        {
          "internalType": "address",
          "name": "from",
          "type": "address"
        },
        {
          "internalType": "address",
          "name": "to",
          "type": "address"
        },
        {
          "internalType": "uint256[]",
          "name": "ids",
          "type": "uint256[]"
        },
        {
          "internalType": "uint256[]",
          "name": "amounts",
          "type": "uint256[]"
        },
        {
          "internalType": "bytes",
          "name": "data",
          "type": "bytes"
        }
      ],
      "name": "safeBatchTransferFrom",
      "outputs": [],
      "stateMutability": "nonpayable",
      "type": "function"
    },
    {
      "inputs": [
        {
          "internalType": "address",
          "name": "from",
          "type": "address"
        },
        {
          "internalType": "address",
          "name": "to",
          "type": "address"
        },
        {
          "internalType": "uint256",
          "name": "id",
          "type": "uint256"
        },
        {
          "internalType": "uint256",
          "name": "amount",
          "type": "uint256"
        },
        {
          "internalType": "bytes",
          "name": "data",
          "type": "bytes"
        }
      ],
      "name": "safeTransferFrom",
      "outputs": [],
      "stateMutability": "nonpayable",
      "type": "function"
    },
    {
      "inputs": [
        {
          "internalType": "address",
          "name": "operator",
          "type": "address"
        },
        {
          "internalType": "bool",
          "name": "approved",
          "type": "bool"
        }
      ],
      "name": "setApprovalForAll",
      "outputs": [],
      "stateMutability": "nonpayable",
      "type": "function"
    },
    {
      "inputs": [
        {
          "internalType": "bytes4",
          "name": "interfaceId",
          "type": "bytes4"
        }
      ],
      "name": "supportsInterface",
      "outputs": [
        {
          "internalType": "bool",
          "name": "",
          "type": "bool"
        }
      ],
      "stateMutability": "view",
      "type": "function"
    },
    {
      "inputs": [
        {
          "internalType": "uint256",
          "name": "id",
          "type": "uint256"
        }
      ],
      "name": "tokenSupply",
      "outputs": [
        {
          "internalType": "uint256",
          "name": "",
          "type": "uint256"
        }
      ],
      "stateMutability": "view",
      "type": "function"
    },
    {
      "inputs": [
        {
          "internalType": "uint256",
          "name": "id",
          "type": "uint256"
        }
      ],
      "name": "tokenURI",
      "outputs": [
        {
          "internalType": "string",
          "name": "",
          "type": "string"
        }
      ],
      "stateMutability": "view",
      "type": "function"
    },
    {
      "inputs": [
        {
          "internalType": "address",
          "name": "to",
          "type": "address"
        },
        {
          "internalType": "uint256",
          "name": "id",
          "type": "uint256"
        },
        {
          "internalType": "uint256",
          "name": "amount",
          "type": "uint256"
        }
      ],
      "name": "transfer",
      "outputs": [],
      "stateMutability": "nonpayable",
      "type": "function"
    },
    {
      "inputs": [
        {
          "internalType": "uint256",
          "name": "id",
          "type": "uint256"
        }
      ],
      "name": "uri",
      "outputs": [
        {
          "internalType": "string",
          "name": "",
          "type": "string"
        }
      ],
      "stateMutability": "view",
      "type": "function"
    }
  ],
  "bytecode": "0x60806040523480156200001157600080fd5b506040805160208101909152600081526200002c8162000045565b50600480546001600160a01b0319163317905562000141565b80516200005a9060029060208401906200005e565b5050565b8280546200006c9062000104565b90600052602060002090601f016020900481019282620000905760008555620000db565b82601f10620000ab57805160ff1916838001178555620000db565b82800160010185558215620000db579182015b82811115620000db578251825591602001919060010190620000be565b50620000e9929150620000ed565b5090565b5b80821115620000e95760008155600101620000ee565b600181811c908216806200011957607f821691505b602082108114156200013b57634e487b7160e01b600052602260045260246000fd5b50919050565b6123e980620001516000396000f3fe608060405234801561001057600080fd5b506004361061010a5760003560e01c806383ca4b6f116100a2578063c87b56dd11610071578063c87b56dd1461016d578063d3fc986414610257578063e39c6d801461026a578063e985e9c51461027d578063f242432a146102b957600080fd5b806383ca4b6f146101f35780638da5cb5b14610206578063a22cb46514610231578063b390c0ab1461024457600080fd5b8063146d9ddc116100de578063146d9ddc1461018d5780632693ebf2146101a05780632eb2c2d6146101c05780634e1273f4146101d357600080fd5b8062fdd58e1461010f57806301ffc9a714610135578063095bcdb6146101585780630e89341c1461016d575b600080fd5b61012261011d366004611c12565b6102cc565b6040519081526020015b60405180910390f35b610148610143366004611dca565b610363565b604051901515815260200161012c565b61016b610166366004611c85565b6103b5565b005b61018061017b366004611e09565b6103e1565b60405161012c9190611fd3565b61016b61019b366004611a79565b610483565b6101226101ae366004611e09565b60009081526005602052604090205490565b61016b6101ce366004611972565b6106c3565b6101e66101e1366004611cb7565b610753565b60405161012c9190611f92565b61016b610201366004611d81565b6108b4565b600454610219906001600160a01b031681565b6040516001600160a01b03909116815260200161012c565b61016b61023f366004611bd8565b6108c3565b61016b610252366004611e21565b6108ce565b61016b610265366004611c3b565b6108d9565b61016b610278366004611b68565b6109a1565b61014861028b366004611940565b6001600160a01b03918216600090815260016020908152604080832093909416825291909152205460ff1690565b61016b6102c7366004611a17565b6109c8565b60006001600160a01b03831661033d5760405162461bcd60e51b815260206004820152602b60248201527f455243313135353a2062616c616e636520717565727920666f7220746865207a60448201526a65726f206164647265737360a81b60648201526084015b60405180910390fd5b506000908152602081815260408083206001600160a01b03949094168352929052205490565b60006001600160e01b03198216636cdb3d1360e11b148061039457506001600160e01b031982166303a24d0760e21b145b806103af57506301ffc9a760e01b6001600160e01b03198316145b92915050565b6103dc3384848460405180604001604052806002815260200161060f60f31b8152506109c8565b505050565b60008181526006602052604090208054606091906103fe9061224b565b80601f016020809104026020016040519081016040528092919081815260200182805461042a9061224b565b80156104775780601f1061044c57610100808354040283529160200191610477565b820191906000526020600020905b81548152906001019060200180831161045a57829003601f168201915b50505050509050919050565b6004546001600160a01b031633146104d45760405162461bcd60e51b81526020600482015260146024820152735265737472696374656420746f206f776e65722160601b6044820152606401610334565b80518251146105255760405162461bcd60e51b815260206004820181905260248201527f616d6f756e747320616e642063696473206c656e677468206d69736d617463686044820152606401610334565b600082516001600160401b0381111561054e57634e487b7160e01b600052604160045260246000fd5b604051908082528060200260200182016040528015610577578160200160208202803683370190505b50905060005b83518110156105ed57610594600380546001019055565b600061059f60035490565b9050808383815181106105c257634e487b7160e01b600052603260045260246000fd5b602002602001018181516105d691906121f0565b9052508190506105e5816122b2565b91505061057d565b5061060984828560405180602001604052806000815250610a4f565b60005b81518110156106bc5782818151811061063557634e487b7160e01b600052603260045260246000fd5b602002602001015160405160200161064d9190611ea8565b6040516020818303038152906040526006600084848151811061068057634e487b7160e01b600052603260045260246000fd5b6020026020010151815260200190815260200160002090805190602001906106a99291906117a9565b50806106b4816122b2565b91505061060c565b5050505050565b6001600160a01b0385163314806106df57506106df853361028b565b6107465760405162461bcd60e51b815260206004820152603260248201527f455243313135353a207472616e736665722063616c6c6572206973206e6f74206044820152711bdddb995c881b9bdc88185c1c1c9bdd995960721b6064820152608401610334565b6106bc8585858585610bc5565b606081518351146107b85760405162461bcd60e51b815260206004820152602960248201527f455243313135353a206163636f756e747320616e6420696473206c656e677468604482015268040dad2e6dac2e8c6d60bb1b6064820152608401610334565b600083516001600160401b038111156107e157634e487b7160e01b600052604160045260246000fd5b60405190808252806020026020018201604052801561080a578160200160208202803683370190505b50905060005b84518110156108ac5761087185828151811061083c57634e487b7160e01b600052603260045260246000fd5b602002602001015185838151811061086457634e487b7160e01b600052603260045260246000fd5b60200260200101516102cc565b82828151811061089157634e487b7160e01b600052603260045260246000fd5b60209081029190910101526108a5816122b2565b9050610810565b509392505050565b6108bf338383610d8b565b5050565b6108bf338383610f41565b6108bf338383611022565b6004546001600160a01b0316331461092a5760405162461bcd60e51b81526020600482015260146024820152735265737472696374656420746f206f776e65722160601b6044820152606401610334565b610938600380546001019055565b600061094360035490565b905061096084828560405180602001604052806000815250611139565b816040516020016109719190611ea8565b60408051601f1981840301815291815260008381526006602090815291902082516106bc939192909101906117a9565b6103dc3384848460405180604001604052806002815260200161060f60f31b8152506106c3565b6001600160a01b0385163314806109e457506109e4853361028b565b610a425760405162461bcd60e51b815260206004820152602960248201527f455243313135353a2063616c6c6572206973206e6f74206f776e6572206e6f7260448201526808185c1c1c9bdd995960ba1b6064820152608401610334565b6106bc8585858585611219565b6001600160a01b038416610a755760405162461bcd60e51b81526004016103349061218c565b8151835114610a965760405162461bcd60e51b815260040161033490612144565b3360005b8451811015610b4e57838181518110610ac357634e487b7160e01b600052603260045260246000fd5b6020026020010151600080878481518110610aee57634e487b7160e01b600052603260045260246000fd5b602002602001015181526020019081526020016000206000886001600160a01b03166001600160a01b031681526020019081526020016000206000828254610b3691906121f0565b90915550819050610b46816122b2565b915050610a9a565b50846001600160a01b031660006001600160a01b0316826001600160a01b03167f4a39dc06d4c0dbc64b70af90fd698a233a518aa5d07e595d983b8c0526c8f7fb8787604051610b9f929190611fa5565b60405180910390a4610bb681600087878787611351565b6106bc8160008787878761151b565b8151835114610be65760405162461bcd60e51b815260040161033490612144565b6001600160a01b038416610c0c5760405162461bcd60e51b815260040161033490612072565b3360005b8451811015610d0f576000858281518110610c3b57634e487b7160e01b600052603260045260246000fd5b602002602001015190506000858381518110610c6757634e487b7160e01b600052603260045260246000fd5b602090810291909101810151600084815280835260408082206001600160a01b038e168352909352919091205490915081811015610cb75760405162461bcd60e51b8152600401610334906120fa565b6000838152602081815260408083206001600160a01b038e8116855292528083208585039055908b16825281208054849290610cf49084906121f0565b9250508190555050505080610d08906122b2565b9050610c10565b50846001600160a01b0316866001600160a01b0316826001600160a01b03167f4a39dc06d4c0dbc64b70af90fd698a233a518aa5d07e595d983b8c0526c8f7fb8787604051610d5f929190611fa5565b60405180910390a4610d75818787878787611351565b610d8381878787878761151b565b505050505050565b6001600160a01b038316610db15760405162461bcd60e51b8152600401610334906120b7565b8051825114610dd25760405162461bcd60e51b815260040161033490612144565b604080516020810190915260009081905233905b8351811015610ec4576000848281518110610e1157634e487b7160e01b600052603260045260246000fd5b602002602001015190506000848381518110610e3d57634e487b7160e01b600052603260045260246000fd5b602090810291909101810151600084815280835260408082206001600160a01b038c168352909352919091205490915081811015610e8d5760405162461bcd60e51b81526004016103349061202e565b6000928352602083815260408085206001600160a01b038b1686529091529092209103905580610ebc816122b2565b915050610de6565b5060006001600160a01b0316846001600160a01b0316826001600160a01b03167f4a39dc06d4c0dbc64b70af90fd698a233a518aa5d07e595d983b8c0526c8f7fb8686604051610f15929190611fa5565b60405180910390a4610f3b81856000868660405180602001604052806000815250611351565b50505050565b816001600160a01b0316836001600160a01b03161415610fb55760405162461bcd60e51b815260206004820152602960248201527f455243313135353a2073657474696e6720617070726f76616c20737461747573604482015268103337b91039b2b63360b91b6064820152608401610334565b6001600160a01b03838116600081815260016020908152604080832094871680845294825291829020805460ff191686151590811790915591519182527f17307eab39ab6107e8899845ad3d59bd9653f200f220920489ca2b5937696c31910160405180910390a3505050565b6001600160a01b0383166110485760405162461bcd60e51b8152600401610334906120b7565b33600061105484611686565b9050600061106184611686565b60408051602080820183526000918290528882528181528282206001600160a01b038b16835290522054909150848110156110ae5760405162461bcd60e51b81526004016103349061202e565b6000868152602081815260408083206001600160a01b038b81168086529184528285208a8703905582518b81529384018a90529092908816917fc3d58168c5ae7397731d063d5bbf3d657854427343f4c083240f7aacaa2d0f62910160405180910390a461113084886000868660405180602001604052806000815250611351565b50505050505050565b6001600160a01b03841661115f5760405162461bcd60e51b81526004016103349061218c565b33600061116b85611686565b9050600061117885611686565b90506000868152602081815260408083206001600160a01b038b168452909152812080548792906111aa9084906121f0565b909155505060408051878152602081018790526001600160a01b03808a1692600092918716917fc3d58168c5ae7397731d063d5bbf3d657854427343f4c083240f7aacaa2d0f62910160405180910390a461120a83600089858589611351565b611130836000898989896116df565b6001600160a01b03841661123f5760405162461bcd60e51b815260040161033490612072565b33600061124b85611686565b9050600061125885611686565b90506000868152602081815260408083206001600160a01b038c1684529091529020548581101561129b5760405162461bcd60e51b8152600401610334906120fa565b6000878152602081815260408083206001600160a01b038d8116855292528083208985039055908a168252812080548892906112d89084906121f0565b909155505060408051888152602081018890526001600160a01b03808b16928c821692918816917fc3d58168c5ae7397731d063d5bbf3d657854427343f4c083240f7aacaa2d0f62910160405180910390a4611338848a8a86868a611351565b611346848a8a8a8a8a6116df565b505050505050505050565b60005b8351811015611130576001600160a01b0386166113e25782818151811061138b57634e487b7160e01b600052603260045260246000fd5b6020026020010151600560008684815181106113b757634e487b7160e01b600052603260045260246000fd5b6020026020010151815260200190815260200160002060008282546113dc91906121f0565b90915550505b6001600160a01b0385166114675782818151811061141057634e487b7160e01b600052603260045260246000fd5b60200260200101516005600086848151811061143c57634e487b7160e01b600052603260045260246000fd5b6020026020010151815260200190815260200160002060008282546114619190612208565b90915550505b6005600085838151811061148b57634e487b7160e01b600052603260045260246000fd5b6020026020010151815260200190815260200160002054600014156115095760405180602001604052806000815250600660008684815181106114de57634e487b7160e01b600052603260045260246000fd5b6020026020010151815260200190815260200160002090805190602001906115079291906117a9565b505b80611513816122b2565b915050611354565b6001600160a01b0384163b15610d835760405163bc197c8160e01b81526001600160a01b0385169063bc197c819061155f9089908990889088908890600401611eef565b602060405180830381600087803b15801561157957600080fd5b505af19250505080156115a9575060408051601f3d908101601f191682019092526115a691810190611ded565b60015b611656576115b56122f9565b806308c379a014156115ef57506115ca612311565b806115d557506115f1565b8060405162461bcd60e51b81526004016103349190611fd3565b505b60405162461bcd60e51b815260206004820152603460248201527f455243313135353a207472616e7366657220746f206e6f6e20455243313135356044820152732932b1b2b4bb32b91034b6b83632b6b2b73a32b960611b6064820152608401610334565b6001600160e01b0319811663bc197c8160e01b146111305760405162461bcd60e51b815260040161033490611fe6565b604080516001808252818301909252606091600091906020808301908036833701905050905082816000815181106116ce57634e487b7160e01b600052603260045260246000fd5b602090810291909101015292915050565b6001600160a01b0384163b15610d835760405163f23a6e6160e01b81526001600160a01b0385169063f23a6e61906117239089908990889088908890600401611f4d565b602060405180830381600087803b15801561173d57600080fd5b505af192505050801561176d575060408051601f3d908101601f1916820190925261176a91810190611ded565b60015b611779576115b56122f9565b6001600160e01b0319811663f23a6e6160e01b146111305760405162461bcd60e51b815260040161033490611fe6565b8280546117b59061224b565b90600052602060002090601f0160209004810192826117d7576000855561181d565b82601f106117f057805160ff191683800117855561181d565b8280016001018555821561181d579182015b8281111561181d578251825591602001919060010190611802565b5061182992915061182d565b5090565b5b80821115611829576000815560010161182e565b80356001600160a01b038116811461185957600080fd5b919050565b600082601f83011261186e578081fd5b8135602061187b826121cd565b6040516118888282612286565b8381528281019150858301600585901b870184018810156118a7578586fd5b855b858110156118c5578135845292840192908401906001016118a9565b5090979650505050505050565b600082601f8301126118e2578081fd5b81356001600160401b038111156118fb576118fb6122e3565b604051611912601f8301601f191660200182612286565b818152846020838601011115611926578283fd5b816020850160208301379081016020019190915292915050565b60008060408385031215611952578182fd5b61195b83611842565b915061196960208401611842565b90509250929050565b600080600080600060a08688031215611989578081fd5b61199286611842565b94506119a060208701611842565b935060408601356001600160401b03808211156119bb578283fd5b6119c789838a0161185e565b945060608801359150808211156119dc578283fd5b6119e889838a0161185e565b935060808801359150808211156119fd578283fd5b50611a0a888289016118d2565b9150509295509295909350565b600080600080600060a08688031215611a2e578081fd5b611a3786611842565b9450611a4560208701611842565b9350604086013592506060860135915060808601356001600160401b03811115611a6d578182fd5b611a0a888289016118d2565b600080600060608486031215611a8d578283fd5b611a9684611842565b92506020808501356001600160401b0380821115611ab2578485fd5b611abe8883890161185e565b94506040870135915080821115611ad3578384fd5b818701915087601f830112611ae6578384fd5b8135611af1816121cd565b604051611afe8282612286565b8281528581019150848601600584901b860187018c1015611b1d578788fd5b875b84811015611b5657813586811115611b3557898afd5b611b438e8a838b01016118d2565b8552509287019290870190600101611b1f565b50508096505050505050509250925092565b600080600060608486031215611b7c578283fd5b611b8584611842565b925060208401356001600160401b0380821115611ba0578384fd5b611bac8783880161185e565b93506040860135915080821115611bc1578283fd5b50611bce8682870161185e565b9150509250925092565b60008060408385031215611bea578182fd5b611bf383611842565b915060208301358015158114611c07578182fd5b809150509250929050565b60008060408385031215611c24578182fd5b611c2d83611842565b946020939093013593505050565b600080600060608486031215611c4f578081fd5b611c5884611842565b92506020840135915060408401356001600160401b03811115611c79578182fd5b611bce868287016118d2565b600080600060608486031215611c99578081fd5b611ca284611842565b95602085013595506040909401359392505050565b60008060408385031215611cc9578182fd5b82356001600160401b0380821115611cdf578384fd5b818501915085601f830112611cf2578384fd5b81356020611cff826121cd565b604051611d0c8282612286565b8381528281019150858301600585901b870184018b1015611d2b578889fd5b8896505b84871015611d5457611d4081611842565b835260019690960195918301918301611d2f565b5096505086013592505080821115611d6a578283fd5b50611d778582860161185e565b9150509250929050565b60008060408385031215611d93578182fd5b82356001600160401b0380821115611da9578384fd5b611db58683870161185e565b93506020850135915080821115611d6a578283fd5b600060208284031215611ddb578081fd5b8135611de68161239a565b9392505050565b600060208284031215611dfe578081fd5b8151611de68161239a565b600060208284031215611e1a578081fd5b5035919050565b60008060408385031215611e33578182fd5b50508035926020909101359150565b6000815180845260208085019450808401835b83811015611e7157815187529582019590820190600101611e55565b509495945050505050565b60008151808452611e9481602086016020860161221f565b601f01601f19169290920160200192915050565b66697066733a2f2f60c81b815260008251611eca81600785016020870161221f565b6d17b6b2ba30b230ba30973539b7b760911b6007939091019283015250601501919050565b6001600160a01b0386811682528516602082015260a060408201819052600090611f1b90830186611e42565b8281036060840152611f2d8186611e42565b90508281036080840152611f418185611e7c565b98975050505050505050565b6001600160a01b03868116825285166020820152604081018490526060810183905260a060808201819052600090611f8790830184611e7c565b979650505050505050565b602081526000611de66020830184611e42565b604081526000611fb86040830185611e42565b8281036020840152611fca8185611e42565b95945050505050565b602081526000611de66020830184611e7c565b60208082526028908201527f455243313135353a204552433131353552656365697665722072656a656374656040820152676420746f6b656e7360c01b606082015260800190565b60208082526024908201527f455243313135353a206275726e20616d6f756e7420657863656564732062616c604082015263616e636560e01b606082015260800190565b60208082526025908201527f455243313135353a207472616e7366657220746f20746865207a65726f206164604082015264647265737360d81b606082015260800190565b60208082526023908201527f455243313135353a206275726e2066726f6d20746865207a65726f206164647260408201526265737360e81b606082015260800190565b6020808252602a908201527f455243313135353a20696e73756666696369656e742062616c616e636520666f60408201526939103a3930b739b332b960b11b606082015260800190565b60208082526028908201527f455243313135353a2069647320616e6420616d6f756e7473206c656e677468206040820152670dad2e6dac2e8c6d60c31b606082015260800190565b60208082526021908201527f455243313135353a206d696e7420746f20746865207a65726f206164647265736040820152607360f81b606082015260800190565b60006001600160401b038211156121e6576121e66122e3565b5060051b60200190565b60008219821115612203576122036122cd565b500190565b60008282101561221a5761221a6122cd565b500390565b60005b8381101561223a578181015183820152602001612222565b83811115610f3b5750506000910152565b600181811c9082168061225f57607f821691505b6020821081141561228057634e487b7160e01b600052602260045260246000fd5b50919050565b601f8201601f191681016001600160401b03811182821017156122ab576122ab6122e3565b6040525050565b60006000198214156122c6576122c66122cd565b5060010190565b634e487b7160e01b600052601160045260246000fd5b634e487b7160e01b600052604160045260246000fd5b600060033d111561230e57600481823e5160e01c5b90565b600060443d101561231f5790565b6040516003193d81016004833e81513d6001600160401b03816024840111818411171561234e57505050505090565b82850191508151818111156123665750505050505090565b843d87010160208285010111156123805750505050505090565b61238f60208286010187612286565b509095945050505050565b6001600160e01b0319811681146123b057600080fd5b5056fea2646970667358221220edf8cda42a2ae97a3df5c90c5c923b4386497565ac35ea1b1512669c4009423a64736f6c63430008040033",
  "linkReferences": {},
  "deployedLinkReferences": {}
}